S010000070726F6A656374322E73726563EB
S11300000C942A000C9468000C943C000C943C0062
S11300100C943C000C943C000C943C000C943C006C
S11300200C943C000C943C000C943C000C943C005C
S11300300C943C000C943C000C943C000C943C004C
S11300400C943C000C943C000C943C000C943C003C
S11300500C943C0011241FBECFE5D8E0DEBFCDBF19
S113006020E0A0E6B0E001C01D92A636B207E1F799
S11300700E94E5010C9453030C9400000E94B30108
S11300800E949F010E942F030E944F03089581E064
S11300908093650010C061E481E00E94B00162E4D5
S11300A081E00E94B00181E00E94370380916500E5
S11300B08F5F8093650080916500833160F361E414
S11300C081E00E94AC0162E481E00E94AC010895E9
S11300D01F920F920FB60F9211248F939F938091CA
S11300E06300811114C080916000833081F091E03D
S11300F090936300909164009093620090E89093D1
S1130100640094E6909365008150809360009F9111
S11301108F910F900FBE0F901F90189580916000E3
S11301208130A9F028F0823071F18330D9F108953B
S113013081E08093600061E480E00E94A80183E193
S11301400E94370361E480E00E94AC01089582E0DC
S11301508093600081E0809365000CC061E481E0DD
S11301600E94B00181E00E943703809165008F5F97
S11301708093650080916500843180F361E481E0BF
S11301800E94AC01089583E08093600061E482E002
S11301900E94A80183E10E94370361E482E00E9487
S11301A0AC01089584E08093600081E08093650051
S11301B00CC061E481E00E94B00181E00E94370339
S11301C0809165008F5F8093650080916500843124
S11301D080F361E481E00E94AC01089580916000A5
S11301E08230B9F028F4882351F0813061F0089509
S11301F0843061F108F1853009F441C0089581E04B
S11302008093600008950E94470082E0809360001C
S1130210089561E482E00E94A80162E482E00E9401
S1130220A80183E10E94370361E482E00E94AC01EB
S113023083E08093600008950E94470062E482E0B6
S11302400E94AC0184E080936000089562E480E041
S11302500E94A80161E480E00E94A80183E10E9459
S1130260370362E480E00E94AC0161E480E00E9414
S1130270AC011092630081E080936000089562E411
S113028080E00E94A80181E0809365000CC061E4D5
S113029081E00E94B00181E00E94370380916500F3
S11302A08F5F809365002091650030E0409162008B
S11302B083E190E0841B91098217930744F762E479
S11302C080E00E94AC0161E481E00E94AC0181E025
S11302D08093600008950E943E0010926300109283
S11302E0600080916300811106C081E08093610009
S11302F00E948E0015C0813099F480916000813095
S113030011F0833039F480916100813019F485E073
S113031080936000109261000E94CC010E94EE0064
S1130320809160008430E9F6809163008111D9CF17
S113033010926000D6CF40E00E94EA01089564E480
S113034082E00E949B01089541E00E94EA01089521
S113035041E00E946D02089540E00E946D020895FC
S11303600E94F002089561E480E00E94A40161E427
S113037081E00E94A40161E482E00E94A40162E49D
S113038080E00E94A40162E481E00E94A40162E48E
S113039082E00E94A401089561E480E00E94AC011F
S11303A061E481E00E94AC0161E482E00E94AC015E
S11303B062E480E00E94AC0162E481E00E94AC014E
S11303C062E482E00E94AC0108950E946B0180E027
S11303D090E00895623449F118F4613441F00895CD
S11303E0633409F440C0643409F45AC008954111D7
S11303F00CC09AB321E030E0082E02C0220F331F54
S11304000A94E2F7209529232ABB413009F064C0FD
S11304104AB321E030E0B90102C0660F771F8A9524
S1130420E2F7CB01842B8ABB089541110CC097B32A
S113043021E030E0082E02C0220F331F0A94E2F7B5
S11304402095292327BB413009F046C047B321E05A
S113045030E0B90102C0660F771F8A95E2F7CB013D
S1130460842B87BB089541110CC094B321E030E084
S1130470082E02C0220F331F0A94E2F72095292385
S113048024BB413049F544B321E030E0B90102C056
S1130490660F771F8A95E2F7CB01842B84BB0895FE
S11304A041110CC091B321E030E0082E02C0220FAC
S11304B0331F0A94E2F72095292321BB413061F4CC
S11304C041B321E030E0B90102C0660F771F8A957D
S11304D0E2F7CB01842B81BB0895623449F118F40F
S11304E0613441F00895633409F440C0643409F47C
S11304F05AC0089541110CC09BB321E030E0082E8E
S113050002C0220F331F0A94E2F7209529232BBB44
S1130510413009F064C04BB321E030E0B90102C0BE
S1130520660F771F8A95E2F7CB01842B8BBB089566
S113053041110CC098B321E030E0082E02C0220F14
S1130540331F0A94E2F72095292328BB413009F090
S113055046C048B321E030E0B90102C0660F771FFE
S11305608A95E2F7CB01842B88BB089541110CC016
S113057095B321E030E0082E02C0220F331F0A9405
S1130580E2F72095292325BB413049F545B321E005
S113059030E0B90102C0660F771F8A95E2F7CB01FC
S11305A0842B85BB089541110CC092B321E030E047
S11305B0082E02C0220F331F0A94E2F72095292344
S11305C022BB413061F442B321E030E0B90102C002
S11305D0660F771F8A95E2F7CB01842B82BB0895BF
S11305E06234B1F018F4613431F008956334E9F001
S11305F0643441F108954BB321E030E0B90102C005
S1130600660F771F8A95E2F7CB0184278BBB089589
S113061048B321E030E0B90102C0660F771F8A9524
S1130620E2F7CB01842788BB089545B321E030E08D
S1130630B90102C0660F771F8A95E2F7CB018427C0
S113064085BB089542B321E030E0B90102C0660FD2
S1130650771F8A95E2F7CB01842782BB08957894AB
S113066085B7836085BF8BB780648BBF089591E0A5
S11306709093640093B7956093BF0BC008B600FED7
S1130680FDCF98B7916098BF909164009F5F90935D
S1130690640090916400891788F713BE089513BE0F
S10D06A08CE082BF0895F894FFCFA8
S9030000FC
